:1000000009C016C015C014C013C012C011C010C062
:100010000FC00EC011241FBECFE9CDBF10E0A0E677
:10002000B0E001C01D92A636B107E1F77ED006C14F
:10003000E7CFE2E6F0E081E087B9369A3699FECF65
:1000400024B135B1B09B06C02F5F3F4F3695279541
:100050003695279581819281820F931F92838183A8
:1000600023812F5F23832430C8F0B09B05C0969571
:1000700087959695879508C06BE070E0CED0880F85
:10008000892F881F990B91958F3F910519F010F0DA
:100090008FEF90E080831382128211820895815045
:1000A000F1F70895CF93DF93D82FC19A85E3F7DF57
:1000B000C8E0D0FF02C0C19801C0C19A82E3EFDF5F
:1000C000D695C150B1F7C19882E3E9DF81E090E0B5
:1000D000DF91CF910895CF93C82F809161002C2F8D
:1000E00030E0280F311D432F5527420F531F4093F7
:1000F000610083E88C0F823018F48DE7D3DFCF7D69
:100100008C2FCF91CFCF12BE84E083BF80E28ABF15
:1001100090E20AB605FC02C0B19B02C09ABF12BEB3
:1001200082B78739B0F313BE0895B998C19884E0B7
:1001300084BB86E886B9A99ABC9AC498B898C09A34
:1001400078DF77DF76DF75DFDEDF82E083BF80E296
:100150008ABF0AB605FEFDCF82B790E29ABF0AB603
:1001600005FEFDCF82BF90E29ABF97EE980F9A30BE
:1001700030F493EE980F19F081B7890F81BFC3DF78
:1001800080E28ABF10E20AB605FEFDCF1ABFB19B1E
:1001900042C0C49AB19B12C087E181DFC498C49A5F
:1001A000D8E0C0E084E37BDFC498C49AC695B19BD5
:1001B000C068D150B9F784E372DF01C0C0E0C498D1
:1001C000809160008E3729F5CB3119F510926000CF
:1001D000C5E08AEF64DFC150E1F7C0916200B99ACF
:1001E000C1981092610080E176DF83E074DF81EFD7
:1001F00072DF8C2F70DF80E06EDF80E06CDF80E0EC
:100200006ADF80916100809566DFB998C19811DF3F
:1002100002C0C09360001ABFB6CF0024552704C0A7
:10022000080E591F880F991F009729F0769567953A
:10023000B8F37105B9F7802D952F0895F894FFCF85
:00000001FF
