:1000000017C024C023C022C021C020C01FC01EC0F2
:100010001DC01CC000A12283E445C66748E96ACB25
:10002000AC0D8E2FD071F253349516B79839BA1B98
:1000300011241FBECFE9CDBF10E0A0E6B0E001C0A3
:100040001D92AE36B107E1F7CBD083C1D9CFCF93A4
:10005000DF93E6E6F0E081E087B9BF016C5F7F4F98
:10006000C0E0D3E0369A3699FECF44B155B1CA010B
:10007000B09902C0C13029F401969695879596955E
:10008000879521813281280F391F32832183DB013B
:100090008E918F5F8C93843018F1C901B09902C0A2
:1000A000C13029F496958795969587950FC0880F4E
:1000B000991F880F991F820F931F880F991F820F16
:1000C000931F880F892F881F990B91958F3F91055A
:1000D00019F010F08FEF90E080831C921282118251
:1000E0003496D7B96C5F7F4FC11102C0C1E0BACF5F
:1000F000483E534010F4A39AC398DF91CF910895DE
:1001000008B602FEFDCF84E088BF08951F93CF9309
:10011000DF93182FC091620082B78C0F86BF84E0F6
:1001200088BFC19AEDDFD8E010FF02C0C19801C0BE
:10013000C19A86B78C0F86BFE3DF1695D150A1F721
:10014000C19886B78C0F86BFDF91CF911F91D8CF12
:10015000CF93C82F809164002C2F30E0280F311DE1
:10016000432F5527420F531F4093640083E88C0FA1
:10017000823018F48DE7CADFCF7D8C2FCF91C6CFA8
:1001800012BE84E083BF80E28ABF90E20AB605FC1B
:1001900002C0B19B02C09ABF12BEA89582B7873930
:1001A000A8F313BE089582E083BF80E28ABF0AB637
:1001B00005FE04C092B780E28ABF03C0A895F7CFBE
:1001C000A8950AB605FEFCCF80E28ABF01C0A895BB
:1001D0000AB605FEFCCF82B720E22ABF891B08952C
:1001E000A89581B5886181BD8BE081BDA895B9983E
:1001F000C19884E084BB86E886B9A99AC39ABC9862
:10020000C49AB898C09AA89522DF21DF20DF1FDFAB
:10021000A895E199FECF1EBAE09A9DB39F3F81F069
:10022000E4E1F0E08491282F29272F7131F03196F5
:1002300080E0E033F807B1F78BE1891302C007C013
:100240008BE1E199FECF1EBA8DBBE29AE19A8093D1
:10025000630096DFA8DF94DFA6DF92DFA4DF809340
:10026000620086958851809365008ADF80E28ABFAC
:10027000D1E004E0C0E2FC2E13E0D12E0AB605FE68
:1002800066C013BE12BED3BF8091650086BF08BF93
:10029000FABEB19B5BC034DF18E0C0E0C69586B7FC
:1002A00090916200890F86BF2BDFB19BC06811500F
:1002B000A9F786B790916200890F86BF21DF8091F0
:1002C00060008E3709F040C080916300C8133CC0C5
:1002D0001092600013BE08BF82B7845C86BFD3BE95
:1002E0000FDFD3BF80916100811106C0D093610000
:1002F000E090660013E00AC010926100E0906A008E
:10030000B49B03C015E0C0E002C012E0C1EFB99A8F
:10031000C1981092640080E11BDF812F19DF8C2FC0
:1003200017DF8E2D15DF80E013DF80E011DF80E026
:100330000FDF8091640080950BDFB998C198A39B73
:100340001092610084DE02C0C0936000FABEA895DE
:0603500095CFF894FFCFE9
:00000001FF
