:1000000017C024C023C022C021C020C01FC01EC0F2
:100010001DC01CC000A12283E445C66748E96ACB25
:10002000AC0D8E2FD071F253349516B79839BA1B98
:1000300011241FBECFE9CDBF10E0A0E6B0E001C0A3
:100040001D92A037B107E1F7F3D0B7C1D9CFCF9355
:10005000DF93E8E6F0E081E087B9BF016C5F7F4F96
:10006000C0E0D3E0369A3699FECF44B155B1CA010B
:10007000B09902C0C13029F401969695879596955E
:10008000879521813281280F391F32832183DB013B
:100090008E918F5F8C93843018F1C901B09902C0A2
:1000A000C13029F496958795969587950FC0880F4E
:1000B000991F880F991F820F931F880F991F820F16
:1000C000931F880F892F881F990B91958F3F91055A
:1000D00019F010F08FEF90E080831C921282118251
:1000E0003496D7B96C5F7F4FC11102C0C1E0BACF5F
:1000F000483E534010F4A39AC398DF91CF910895DE
:1001000008B602FEFDCF84E088BF08951F93CF9309
:10011000DF93182FC091620082B78C0F86BF84E0F6
:1001200088BFC19AEDDFD8E010FF02C0C19801C0BE
:10013000C19A86B78C0F86BFE3DF1695D150A1F721
:10014000C19886B78C0F86BFDF91CF911F91D8CF12
:10015000CF93C82F809166002C2F30E0280F311DDF
:10016000432F5527420F531F4093660083E88C0F9F
:10017000823018F48DE7CADFCF7D8C2FCF91C6CFA8
:10018000CF93DF93CDB7DD27C350CDBFB99AC198C8
:100190001092660049835A836B83DADF4981842F8A
:1001A000D7DF5A81852FD4DF6B81862FD1DF80E0A6
:1001B000CFDF80E0CDDF80E0CBDF809166008095EF
:1001C000C7DFB998C198CD5FCDBFDF91CF910895BA
:1001D00012BE84E083BF80E28ABF90E20AB605FCCB
:1001E00002C0B19B02C09ABF12BEA89582B78739E0
:1001F000A8F313BE089582E083BF80E28ABF0AB6E7
:1002000005FE04C092B780E28ABF03C0A895F7CF6D
:10021000A8950AB605FEFCCF80E28ABF01C0A8956A
:100220000AB605FEFCCF82B720E22ABF891B0895DB
:10023000A89581B5886181BD8BE081BDA895B998ED
:10024000C19884E084BB86E886B9A99AC39ABC9811
:10025000C49AB898C09AA895FADEF9DEF8DEF7DEFF
:10026000A895E199FECF1EBAE09A9DB39F3F81F019
:10027000E4E1F0E08491282F29272F7131F03196A5
:1002800080E0E033F807B1F78BE1891302C007C0C3
:100290008BE1E199FECF1EBA8DBBE29AE19A809381
:1002A000640096DFA8DF94DFA6DF92DFA4DF8093EF
:1002B000620086958851809367008ADF80E28ABF5A
:1002C000D1E004E0C0E2FC2E13E0E12E82E0D82E63
:1002D0000AB605FE70C013BE12BED3BF8091670080
:1002E00086BF08BFFABEB19B65C00ADF18E0C0E058
:1002F000C69586B790916200890F86BF01DFB19BDA
:10030000C0681150A9F786B790916200890F86BF27
:10031000F7DE809160008E3709F04AC08091650059
:100320008F5F813118F48093650004C010926500DE
:10033000D092630080916400C8133AC013BE08BF16
:1003400082B7845C86BFE3BEDBDED3BF80916100F1
:10035000811107C0D09361006091680043E051EFC4
:100360000BC01092610060916C00B49B03C045E02B
:1003700050E002C042E051EF80916300882329F0F1
:1003800081508093630080E104C040E050E060E071
:1003900080E0F6DEA39908C01092610080916300AE
:1003A000813011F41092630052DE1092600002C09E
:0E03B000C0936000FABEA8958BCFF894FFCFE3
:00000001FF
