:1000000009C016C015C014C013C012C011C010C062
:100010000FC00EC011241FBECFE9CDBF10E0A0E677
:10002000B0E001C01D92A636B107E1F77FD021C133
:10003000E7CFE2E6F0E081E087B9369A3699FECF65
:1000400024B135B1B09B06C02F5F3F4F3695279541
:100050003695279581819281820F931F92838183A8
:1000600023812F5F23832430C8F0B09B05C0969571
:1000700087959695879508C06BE070E0E9D0880F6A
:10008000892F881F990B91958F3F910519F010F0DA
:100090008FEF90E080831382128211820895815045
:1000A000F1F70895CF93DF93D82FC19A85E3F7DF57
:1000B000C8E0D0FF02C0C19801C0C19A82E3EFDF5F
:1000C000D695C150B1F7C19882E3E9DF81E090E0B5
:1000D000DF91CF910895CF93C82F809161002C2F8D
:1000E00030E0280F311D432F5527420F531F4093F7
:1000F000610083E88C0F823018F48DE7D3DFCF7D69
:100100008C2FCF91CFCF12BE84E083BF80E28ABF15
:1001100090E20AB605FC02C0B19B02C09ABF12BEB3
:10012000A89582B78739A8F313BE0895A89581B51D
:10013000886181BD8BE081BDA895B998C19884E0A4
:1001400084BB86E886B9A99ABC9AC498B898C09A24
:10015000A8956FDF6EDF6DDF6CDFA895D4DF82E0DE
:1001600083BF80E28ABF0AB605FE04C082B790E270
:100170009ABF03C0A895F7CFA8950AB605FEFCCF95
:1001800082BF90E29ABF97EE980F9A3090F490E079
:100190004D97009771F021B7820F911D97FD06C012
:1001A000803891052CF08FE790E002C080E090E06D
:1001B00081BFA9DF80E28ABF10E20AB605FEFDCF4B
:1001C0001ABFB19B42C0C49AB19B12C087E167DFDE
:1001D000C498C49AD8E0C0E084E361DFC498C49AAC
:1001E000C695B19BC068D150B9F784E358DF01C010
:1001F000C0E0C498809160008E3729F5CB3119F5A5
:1002000010926000C5E08AEF4ADFC150E1F7C0916B
:100210006200B99AC1981092610080E15CDF83E0CE
:100220005ADF81EF58DF8C2F56DF80E054DF80E00B
:1002300052DF80E050DF8091610080954CDFB998FB
:10024000C198F7DE02C0C09360001ABFA895B5CF71
:100250000024552704C0080E591F880F991F0097C6
:1002600029F076956795B8F37105B9F7802D952F2C
:060270000895F894FFCF91
:00000001FF
