:1000000009C016C015C014C013C012C011C010C062
:100010000FC00EC011241FBECFE9CDBF10E0A0E677
:10002000B0E001C01D92A836B107E1F797D032C108
:10003000E7CFE4E6F0E081E087B9369A3699FECF63
:1000400084B195B1B09B05C001969695879596951C
:10005000879521813281280F391F32832183838143
:100060008F5F8383843008F1C901B09B05C09695EA
:100070008795969587950FC0880F991F880F991FB0
:10008000820F931F880F991F820F931F880F892F4C
:10009000881F990B91958F3F910519F010F08FEF04
:1000A00090E08083138212821182089508B602FEC6
:1000B000FDCF84E088BF0895CF93DF93D82F82B718
:1000C00090916100890F86BF84E088BFC19AEEDFFE
:1000D000C8E0D0FF02C0C19801C0C19A86B7909114
:1000E0006100890F86BFE2DFD695C15091F7C198B4
:1000F00086B790916100890F86BFD8DF81E090E0DC
:10010000DF91CF910895CF93C82F809162002C2F5B
:1001100030E0280F311D432F5527420F531F4093C6
:10012000620083E88C0F823018F48DE7C5DFCF7D45
:100130008C2FCF91C1CF12BE84E083BF80E28ABFF3
:1001400090E20AB605FC02C0B19B02C09ABF12BE83
:10015000A89582B78739A8F313BE0895A89581B5ED
:10016000886181BD8BE081BDA895B998C19884E074
:1001700084BB86E886B9A99ABC9AC498B898C09AF4
:10018000A89557DF56DF55DF54DFA895D4DF82E00E
:1001900083BF80E28ABF0AB605FE04C092B780E240
:1001A0008ABF03C0A895F7CFA8950AB605FEFCCF75
:1001B00080E28ABF01C0A8950AB605FEFCCF82B7CF
:1001C000891BC0E2CABF80936100869588518093E5
:1001D0006300B1DFCABF11E004E0C0E2FC2ED3E04F
:1001E000ED2E51C013BE12BE13BF8091630086BFB7
:1001F00008BFFABEB19B45C0C49A58DFC498C49AE0
:10020000D8E0C0E0C69586B790916100890F86BF9F
:100210004DDFC498B19BC068C49AD15099F786B796
:1002200090916100890F86BF41DFC4988091600082
:100230008E3769F5CB3159F51092600013BE08BFB7
:1002400082B7845C86BFE3BE31DF13BFC091640018
:10025000B99AC1981092620080E155DF83E053DFC4
:1002600081EF51DF8C2F4FDF80E04DDF80E04BDFEF
:1002700080E049DF80916200809545DFB998C198A0
:10028000D8DEFABEA8950AB605FEFCCFABCFC09368
:080290006000F7CFF894FFCFE6
:00000001FF
