:1000000017C024C023C022C021C020C01FC01EC0F2
:100010001DC01CC000A12283E445C66748E96ACB25
:10002000AC0D8E2FD071F253349516B79839BA1B98
:1000300011241FBECFE9CDBF10E0A0E6B0E001C0A3
:100040001D92A936B107E1F797D054C1D9CFE5E6A3
:10005000F0E081E087B9369A3699FECF84B195B148
:10006000B09B05C0019696958795969587952181B9
:100070003281280F391F3283218383818F5F8383ED
:10008000843008F1C901B09B05C096958795969577
:1000900087950FC0880F991F880F991F820F931F94
:1000A000880F991F820F931F880F892F881F990B24
:1000B00091958F3F910519F010F08FEF90E08083BC
:1000C000138212821182089508B602FEFDCF84E0E9
:1000D00088BF0895CF93DF93D82F82B790916100A6
:1000E000890F86BF84E088BFC19AEEDFC8E0D0FFE9
:1000F00002C0C19801C0C19A86B790916100890F72
:1001000086BFE2DFD695C15091F7C19886B790912E
:100110006100890F86BFD8DF81E090E0DF91CF9149
:100120000895CF93C82F809163002C2F30E0280FC3
:10013000311D432F5527420F531F4093630083E81F
:100140008C0F823018F48DE7C5DFCF7D8C2FCF91D7
:10015000C1CF12BE84E083BF80E28ABF90E20AB6BC
:1001600005FC02C0B19B02C09ABF12BEA89582B71F
:100170008739A8F313BE0895A89581B5886181BD1C
:100180008BE081BDA895B998C19884E084BB86E8CE
:1001900086B9A99ABC9AC498B898C09AA89557DF0E
:1001A00056DF55DF54DFA895E199FECF1EBAE09ADD
:1001B0009DB39F3F81F0E4E1F0E08491282F29274F
:1001C0002F7131F0319680E0E033F807B1F78BE121
:1001D000891302C007C08BE1E199FECF1EBA8DBB27
:1001E000E29AE19A80936200B4DF82E083BF80E20A
:1001F0008ABF0AB605FE04C092B780E28ABF03C078
:10020000A895F7CFA8950AB605FEFCCF80E28ABF75
:1002100001C0A8950AB605FEFCCF82B7891BC0E2D3
:10022000CABF80936100869588518093640091DFF6
:10023000CABF11E004E0C0E2FC2ED3E0ED2E53C0B3
:1002400013BE12BE13BF8091640086BF08BFFABE02
:10025000B19B47C0C49A38DFC498C49AD8E0C0E0C4
:10026000C69586B790916100890F86BF2DDFC4982F
:10027000B19BC068C49AD15099F786B7909161003C
:10028000890F86BF21DFC498809160008E3779F591
:1002900080916200C8132BC01092600013BE08BF8B
:1002A00082B7845C86BFE3BE0FDF13BFC0916500D9
:1002B000B99AC1981092630080E133DF83E031DFA7
:1002C00081EF2FDF8C2F2DDF80E02BDF80E029DF17
:1002D00080E027DF80916300809523DFB998C19883
:1002E000B6DEFABEA8950AB605FEFCCFA9CFC0932C
:0802F0006000F7CFF894FFCF86
:00000001FF
